{
  "contractName": "Witness",
  "abi": [
    {
      "constant": true,
      "inputs": [
        {
          "name": "version",
          "type": "bytes32"
        }
      ],
      "name": "getWitness",
      "outputs": [
        {
          "name": "",
          "type": "bytes32[2]"
        }
      ],
      "payable": false,
      "stateMutability": "view",
      "type": "function"
    },
    {
      "constant": true,
      "inputs": [
        {
          "name": "",
          "type": "bytes32"
        },
        {
          "name": "",
          "type": "uint256"
        }
      ],
      "name": "witness_list",
      "outputs": [
        {
          "name": "",
          "type": "bytes32"
        }
      ],
      "payable": false,
      "stateMutability": "view",
      "type": "function"
    },
    {
      "constant": false,
      "inputs": [
        {
          "name": "version",
          "type": "bytes32"
        },
        {
          "name": "signature",
          "type": "bytes32"
        }
      ],
      "name": "witnessDocument",
      "outputs": [],
      "payable": false,
      "stateMutability": "nonpayable",
      "type": "function"
    }
  ],
  "bytecode": "0x6060604052341561000f57600080fd5b6103248061001e6000396000f300606060405260043610610057576000357c0100000000000000000000000000000000000000000000000000000000900463ffffffff16806347e722461461005c578063d8133496146100bf578063e617f6321461010b575b600080fd5b341561006757600080fd5b61008160048080356000191690602001909190505061013f565b6040518082600260200280838360005b838110156100ac578082015181840152602081019050610091565b5050505090500191505060405180910390f35b34156100ca57600080fd5b6100ed6004808035600019169060200190919080359060200190919050506101a8565b60405180826000191660001916815260200191505060405180910390f35b341561011657600080fd5b61013d600480803560001916906020019091908035600019169060200190919050506101cf565b005b610147610263565b600080836000191660001916815260200190815260200160002060028060200260405190810160405280929190826002801561019c576020028201915b81546000191681526020019060010190808311610184575b50505050509050919050565b6000602052816000526040600020816002811015156101c357fe5b01600091509150505481565b6000600102600080846000191660001916815260200190815260200160002060006002811015156101fc57fe5b01546000191614151561020e57600080fd5b60408051908101604052808260001916600019168152602001426001026000191660001916815250600080846000191660001916815260200190815260200160002090600261025e92919061028d565b505050565b60408051908101604052806002905b60008019168152602001906001900390816102725790505090565b82600281019282156102c2579160200282015b828111156102c15782518290600019169055916020019190600101906102a0565b5b5090506102cf91906102d3565b5090565b6102f591905b808211156102f15760008160009055506001016102d9565b5090565b905600a165627a7a7230582056c09894837e666194edf33c7c2c6934b9a888806f92aa0e9773219909fda1e20029",
  "source": "pragma solidity ^0.4.17;\n\ncontract Witness {\n    // Why address: address is the only longer fixed length type that can be used in mapping. Otherwise we'd have to create a lookup table with mapping (bye32 => mapping (byte32 => bytes))\n    mapping (bytes32 => bytes32[2]) public witness_list;\n\n    function witnessDocument (bytes32 version, bytes32 signature) public {\n        require(witness_list[version][0] == 0x0);\n        witness_list[version] = [signature, bytes32(now)];\n    }\n\n    function getWitness (bytes32 version) public view returns(bytes32[2]) {\n        return witness_list[version];\n    }\n}",
  "sourcePath": "/Users/lucasvo/Code/fuge/cent-signed-doc-contract/contracts/Witness.sol",
  "compiler": {
    "name": "solc",
    "version": "0.4.18+commit.9cf6e910.Emscripten.clang"
  },
  "schemaVersion": "1.0.1",
  "updatedAt": "2018-01-16T21:25:28.807Z"
}